{
  "_format": "hh-sol-artifact-1",
  "contractName": "MyEpicNFT",
  "sourceName": "contracts/MyEpicNFT.sol",
  "abi": [
    {
      "inputs": [
        {
          "internalType": "uint8",
          "name": "maxTokens",
          "type": "uint8"
        }
      ],
      "stateMutability": "nonpayable",
      "type": "constructor"
    },
    {
      "anonymous": false,
      "inputs": [
        {
          "indexed": true,
          "internalType": "address",
          "name": "owner",
          "type": "address"
        },
        {
          "indexed": true,
          "internalType": "address",
          "name": "approved",
          "type": "address"
        },
        {
          "indexed": true,
          "internalType": "uint256",
          "name": "tokenId",
          "type": "uint256"
        }
      ],
      "name": "Approval",
      "type": "event"
    },
    {
      "anonymous": false,
      "inputs": [
        {
          "indexed": true,
          "internalType": "address",
          "name": "owner",
          "type": "address"
        },
        {
          "indexed": true,
          "internalType": "address",
          "name": "operator",
          "type": "address"
        },
        {
          "indexed": false,
          "internalType": "bool",
          "name": "approved",
          "type": "bool"
        }
      ],
      "name": "ApprovalForAll",
      "type": "event"
    },
    {
      "anonymous": false,
      "inputs": [
        {
          "indexed": false,
          "internalType": "address",
          "name": "sender",
          "type": "address"
        },
        {
          "indexed": false,
          "internalType": "uint256",
          "name": "tokenId",
          "type": "uint256"
        },
        {
          "indexed": false,
          "internalType": "uint256",
          "name": "remaining",
          "type": "uint256"
        }
      ],
      "name": "NewEpicNFTMinted",
      "type": "event"
    },
    {
      "anonymous": false,
      "inputs": [
        {
          "indexed": true,
          "internalType": "address",
          "name": "from",
          "type": "address"
        },
        {
          "indexed": true,
          "internalType": "address",
          "name": "to",
          "type": "address"
        },
        {
          "indexed": true,
          "internalType": "uint256",
          "name": "tokenId",
          "type": "uint256"
        }
      ],
      "name": "Transfer",
      "type": "event"
    },
    {
      "inputs": [
        {
          "internalType": "address",
          "name": "to",
          "type": "address"
        },
        {
          "internalType": "uint256",
          "name": "tokenId",
          "type": "uint256"
        }
      ],
      "name": "approve",
      "outputs": [],
      "stateMutability": "nonpayable",
      "type": "function"
    },
    {
      "inputs": [
        {
          "internalType": "address",
          "name": "owner",
          "type": "address"
        }
      ],
      "name": "balanceOf",
      "outputs": [
        {
          "internalType": "uint256",
          "name": "",
          "type": "uint256"
        }
      ],
      "stateMutability": "view",
      "type": "function"
    },
    {
      "inputs": [
        {
          "internalType": "uint256",
          "name": "tokenId",
          "type": "uint256"
        }
      ],
      "name": "getApproved",
      "outputs": [
        {
          "internalType": "address",
          "name": "",
          "type": "address"
        }
      ],
      "stateMutability": "view",
      "type": "function"
    },
    {
      "inputs": [
        {
          "internalType": "address",
          "name": "owner",
          "type": "address"
        },
        {
          "internalType": "address",
          "name": "operator",
          "type": "address"
        }
      ],
      "name": "isApprovedForAll",
      "outputs": [
        {
          "internalType": "bool",
          "name": "",
          "type": "bool"
        }
      ],
      "stateMutability": "view",
      "type": "function"
    },
    {
      "inputs": [],
      "name": "makeAnEpicNFT",
      "outputs": [],
      "stateMutability": "nonpayable",
      "type": "function"
    },
    {
      "inputs": [],
      "name": "name",
      "outputs": [
        {
          "internalType": "string",
          "name": "",
          "type": "string"
        }
      ],
      "stateMutability": "view",
      "type": "function"
    },
    {
      "inputs": [
        {
          "internalType": "uint256",
          "name": "tokenId",
          "type": "uint256"
        }
      ],
      "name": "ownerOf",
      "outputs": [
        {
          "internalType": "address",
          "name": "",
          "type": "address"
        }
      ],
      "stateMutability": "view",
      "type": "function"
    },
    {
      "inputs": [
        {
          "internalType": "uint256",
          "name": "tokenId",
          "type": "uint256"
        }
      ],
      "name": "pickRandomColor",
      "outputs": [
        {
          "internalType": "string",
          "name": "",
          "type": "string"
        }
      ],
      "stateMutability": "view",
      "type": "function"
    },
    {
      "inputs": [
        {
          "internalType": "uint256",
          "name": "tokenId",
          "type": "uint256"
        }
      ],
      "name": "pickRandomFirstWord",
      "outputs": [
        {
          "internalType": "string",
          "name": "",
          "type": "string"
        }
      ],
      "stateMutability": "view",
      "type": "function"
    },
    {
      "inputs": [
        {
          "internalType": "uint256",
          "name": "tokenId",
          "type": "uint256"
        }
      ],
      "name": "pickRandomSecondWord",
      "outputs": [
        {
          "internalType": "string",
          "name": "",
          "type": "string"
        }
      ],
      "stateMutability": "view",
      "type": "function"
    },
    {
      "inputs": [
        {
          "internalType": "uint256",
          "name": "tokenId",
          "type": "uint256"
        }
      ],
      "name": "pickRandomThirdWord",
      "outputs": [
        {
          "internalType": "string",
          "name": "",
          "type": "string"
        }
      ],
      "stateMutability": "view",
      "type": "function"
    },
    {
      "inputs": [],
      "name": "remainingEpicNFTs",
      "outputs": [
        {
          "internalType": "uint256",
          "name": "",
          "type": "uint256"
        }
      ],
      "stateMutability": "view",
      "type": "function"
    },
    {
      "inputs": [
        {
          "internalType": "address",
          "name": "from",
          "type": "address"
        },
        {
          "internalType": "address",
          "name": "to",
          "type": "address"
        },
        {
          "internalType": "uint256",
          "name": "tokenId",
          "type": "uint256"
        }
      ],
      "name": "safeTransferFrom",
      "outputs": [],
      "stateMutability": "nonpayable",
      "type": "function"
    },
    {
      "inputs": [
        {
          "internalType": "address",
          "name": "from",
          "type": "address"
        },
        {
          "internalType": "address",
          "name": "to",
          "type": "address"
        },
        {
          "internalType": "uint256",
          "name": "tokenId",
          "type": "uint256"
        },
        {
          "internalType": "bytes",
          "name": "_data",
          "type": "bytes"
        }
      ],
      "name": "safeTransferFrom",
      "outputs": [],
      "stateMutability": "nonpayable",
      "type": "function"
    },
    {
      "inputs": [
        {
          "internalType": "address",
          "name": "operator",
          "type": "address"
        },
        {
          "internalType": "bool",
          "name": "approved",
          "type": "bool"
        }
      ],
      "name": "setApprovalForAll",
      "outputs": [],
      "stateMutability": "nonpayable",
      "type": "function"
    },
    {
      "inputs": [
        {
          "internalType": "bytes4",
          "name": "interfaceId",
          "type": "bytes4"
        }
      ],
      "name": "supportsInterface",
      "outputs": [
        {
          "internalType": "bool",
          "name": "",
          "type": "bool"
        }
      ],
      "stateMutability": "view",
      "type": "function"
    },
    {
      "inputs": [],
      "name": "symbol",
      "outputs": [
        {
          "internalType": "string",
          "name": "",
          "type": "string"
        }
      ],
      "stateMutability": "view",
      "type": "function"
    },
    {
      "inputs": [
        {
          "internalType": "uint256",
          "name": "tokenId",
          "type": "uint256"
        }
      ],
      "name": "tokenURI",
      "outputs": [
        {
          "internalType": "string",
          "name": "",
          "type": "string"
        }
      ],
      "stateMutability": "view",
      "type": "function"
    },
    {
      "inputs": [
        {
          "internalType": "address",
          "name": "from",
          "type": "address"
        },
        {
          "internalType": "address",
          "name": "to",
          "type": "address"
        },
        {
          "internalType": "uint256",
          "name": "tokenId",
          "type": "uint256"
        }
      ],
      "name": "transferFrom",
      "outputs": [],
      "stateMutability": "nonpayable",
      "type": "function"
    }
  ],
  "bytecode": "0x608060405260405180610100016040528060d3815260200162004a7060d39139600890805190602001906200003692919062000a12565b5060405180608001604052806056815260200162004b4360569139600990805190602001906200006892919062000a12565b50604051806101a001604052806040518060400160405280600681526020017f426f77736572000000000000000000000000000000000000000000000000000081525081526020016040518060400160405280600e81526020017f5072696e636573735f506561636800000000000000000000000000000000000081525081526020016040518060400160405280600581526020017f4c7569676900000000000000000000000000000000000000000000000000000081525081526020016040518060400160405280600481526020017f546f61640000000000000000000000000000000000000000000000000000000081525081526020016040518060400160405280600581526020017f596f73686900000000000000000000000000000000000000000000000000000081525081526020016040518060400160405280600581526020017f4d6172696f00000000000000000000000000000000000000000000000000000081525081526020016040518060400160405280600581526020017f5a656c646100000000000000000000000000000000000000000000000000000081525081526020016040518060400160405280600481526020017f4c696e6b0000000000000000000000000000000000000000000000000000000081525081526020016040518060400160405280600b81526020017f42726f777365725f4a722e00000000000000000000000000000000000000000081525081526020016040518060400160405280600581526020017f576172696f00000000000000000000000000000000000000000000000000000081525081526020016040518060400160405280600a81526020017f4469646479204b6f6e670000000000000000000000000000000000000000000081525081526020016040518060400160405280600e81526020017f5072696e636573735f446169737900000000000000000000000000000000000081525081526020016040518060400160405280600b81526020017f446f6e6b65795f4b6f6e67000000000000000000000000000000000000000000815250815250600a90600d6200038492919062000aa3565b506040518060c001604052806040518060400160405280600581526020017f706c61797300000000000000000000000000000000000000000000000000000081525081526020016040518060400160405280600581526020017f6a756d707300000000000000000000000000000000000000000000000000000081525081526020016040518060400160405280600481526020017f656174730000000000000000000000000000000000000000000000000000000081525081526020016040518060400160405280600581526020017f776f726b7300000000000000000000000000000000000000000000000000000081525081526020016040518060400160405280600781526020017f737475646965730000000000000000000000000000000000000000000000000081525081526020016040518060400160405280600681526020017f6472697665730000000000000000000000000000000000000000000000000000815250815250600b9060066200050292919062000b0a565b506040518060c001604052806040518060400160405280600881526020017f657665727964617900000000000000000000000000000000000000000000000081525081526020016040518060400160405280600c81526020017f6f6e63655f615f6d6f6e7468000000000000000000000000000000000000000081525081526020016040518060400160405280600b81526020017f6f6e63655f615f7765656b00000000000000000000000000000000000000000081525081526020016040518060400160405280600b81526020017f6f6e63655f615f7965617200000000000000000000000000000000000000000081525081526020016040518060400160405280600a81526020017f6f6e63655f615f6461790000000000000000000000000000000000000000000081525081526020016040518060400160405280601181526020017f66726f6d5f74696d655f746f5f74696d65000000000000000000000000000000815250815250600c9060066200068092919062000b0a565b506040518060c001604052806040518060400160405280600381526020017f726564000000000000000000000000000000000000000000000000000000000081525081526020016040518060400160405280600781526020017f233038433241380000000000000000000000000000000000000000000000000081525081526020016040518060400160405280600581526020017f626c61636b00000000000000000000000000000000000000000000000000000081525081526020016040518060400160405280600681526020017f79656c6c6f77000000000000000000000000000000000000000000000000000081525081526020016040518060400160405280600481526020017f626c75650000000000000000000000000000000000000000000000000000000081525081526020016040518060400160405280600581526020017f677265656e000000000000000000000000000000000000000000000000000000815250815250600d906006620007fe92919062000b0a565b503480156200080c57600080fd5b5060405162004b9938038062004b99833981810160405281019062000832919062000c15565b6040518060400160405280600981526020017f5371756172654e465400000000000000000000000000000000000000000000008152506040518060400160405280600681526020017f53515541524500000000000000000000000000000000000000000000000000008152508160009080519060200190620008b692919062000a12565b508060019080519060200190620008cf92919062000a12565b50505080600e60006101000a81548160ff021916908360ff1602179055506200093c6040518060400160405280601881526020017f4e465420436f6e7472616374207769746820256e206d617800000000000000008152508260ff166200094360201b620013e61760201c565b5062000dc0565b620009e582826040516024016200095c92919062000c93565b6040516020818303038152906040527f9710a9d0000000000000000000000000000000000000000000000000000000007bffffffffffffffffffffffffffffffffffffffffffffffffffffffff19166020820180517bffffffffffffffffffffffffffffffffffffffffffffffffffffffff8381831617835250505050620009e960201b60201c565b5050565b60008151905060006a636f6e736f6c652e6c6f679050602083016000808483855afa5050505050565b82805462000a209062000d30565b90600052602060002090601f01602090048101928262000a44576000855562000a90565b82601f1062000a5f57805160ff191683800117855562000a90565b8280016001018555821562000a90579182015b8281111562000a8f57825182559160200191906001019062000a72565b5b50905062000a9f919062000b71565b5090565b82805482825590600052602060002090810192821562000af7579160200282015b8281111562000af657825182908051906020019062000ae592919062000a12565b509160200191906001019062000ac4565b5b50905062000b06919062000b90565b5090565b82805482825590600052602060002090810192821562000b5e579160200282015b8281111562000b5d57825182908051906020019062000b4c92919062000a12565b509160200191906001019062000b2b565b5b50905062000b6d919062000b90565b5090565b5b8082111562000b8c57600081600090555060010162000b72565b5090565b5b8082111562000bb4576000818162000baa919062000bb8565b5060010162000b91565b5090565b50805462000bc69062000d30565b6000825580601f1062000bda575062000bfb565b601f01602090049060005260206000209081019062000bfa919062000b71565b5b50565b60008151905062000c0f8162000da6565b92915050565b60006020828403121562000c2857600080fd5b600062000c388482850162000bfe565b91505092915050565b600062000c4e8262000cc7565b62000c5a818562000cd2565b935062000c6c81856020860162000cfa565b62000c778162000d95565b840191505092915050565b62000c8d8162000ce3565b82525050565b6000604082019050818103600083015262000caf818562000c41565b905062000cc0602083018462000c82565b9392505050565b600081519050919050565b600082825260208201905092915050565b6000819050919050565b600060ff82169050919050565b60005b8381101562000d1a57808201518184015260208101905062000cfd565b8381111562000d2a576000848401525b50505050565b6000600282049050600182168062000d4957607f821691505b6020821081141562000d605762000d5f62000d66565b5b50919050565b7f4e487b7100000000000000000000000000000000000000000000000000000000600052602260045260246000fd5b6000601f19601f8301169050919050565b62000db18162000ced565b811462000dbd57600080fd5b50565b613ca08062000dd06000396000f3fe608060405234801561001057600080fd5b50600436106101215760003560e01c80636352211e116100ad578063b88d4fde11610071578063b88d4fde14610340578063c575757a1461035c578063c87b56dd1461038c578063de9d132f146103bc578063e985e9c5146103c657610121565b80636352211e1461027657806370a08231146102a657806395d89b41146102d6578063a22cb465146102f4578063b187301f1461031057610121565b8063095ea7b3116100f4578063095ea7b3146101c257806323b872dd146101de5780632de38d68146101fa57806342842e0e1461022a578063514dc8c61461024657610121565b80630177f5fa1461012657806301ffc9a71461014457806306fdde0314610174578063081812fc14610192575b600080fd5b61012e6103f6565b60405161013b91906130e1565b60405180910390f35b61015e6004803603810190610159919061267c565b610424565b60405161016b9190612e16565b60405180910390f35b61017c610506565b6040516101899190612e31565b60405180910390f35b6101ac60048036038101906101a791906126ce565b610598565b6040516101b99190612d78565b60405180910390f35b6101dc60048036038101906101d79190612640565b61061d565b005b6101f860048036038101906101f3919061253a565b610735565b005b610214600480360381019061020f91906126ce565b610795565b6040516102219190612e31565b60405180910390f35b610244600480360381019061023f919061253a565b6108b3565b005b610260600480360381019061025b91906126ce565b6108d3565b60405161026d9190612e31565b60405180910390f35b610290600480360381019061028b91906126ce565b6109f1565b60405161029d9190612d78565b60405180910390f35b6102c060048036038101906102bb91906124d5565b610aa3565b6040516102cd91906130e1565b60405180910390f35b6102de610b5b565b6040516102eb9190612e31565b60405180910390f35b61030e60048036038101906103099190612604565b610bed565b005b61032a600480360381019061032591906126ce565b610d6e565b6040516103379190612e31565b60405180910390f35b61035a60048036038101906103559190612589565b610e8c565b005b610376600480360381019061037191906126ce565b610eee565b6040516103839190612e31565b60405180910390f35b6103a660048036038101906103a191906126ce565b61100c565b6040516103b39190612e31565b60405180910390f35b6103c461115e565b005b6103e060048036038101906103db91906124fe565b611352565b6040516103ed9190612e16565b60405180910390f35b60006104026007611482565b600e60009054906101000a900460ff1660ff1661041f919061328b565b905090565b60007f80ac58cd000000000000000000000000000000000000000000000000000000007bffffffffffffffffffffffffffffffffffffffffffffffffffffffff1916827bffffffffffffffffffffffffffffffffffffffffffffffffffffffff191614806104ef57507f5b5e139f000000000000000000000000000000000000000000000000000000007bffffffffffffffffffffffffffffffffffffffffffffffffffffffff1916827bffffffffffffffffffffffffffffffffffffffffffffffffffffffff1916145b806104ff57506104fe82611490565b5b9050919050565b60606000805461051590613375565b80601f016020809104026020016040519081016040528092919081815260200182805461054190613375565b801561058e5780601f106105635761010080835404028352916020019161058e565b820191906000526020600020905b81548152906001019060200180831161057157829003601f168201915b5050505050905090565b60006105a3826114fa565b6105e2576040517f08c379a00000000000000000000000000000000000000000000000000000000081526004016105d990613021565b60405180910390fd5b6004600083815260200190815260200160002060009054906101000a900473ffffffffffffffffffffffffffffffffffffffff169050919050565b6000610628826109f1565b90508073ffffffffffffffffffffffffffffffffffffffff168373ffffffffffffffffffffffffffffffffffffffff161415610699576040517f08c379a000000000000000000000000000000000000000000000000000000000815260040161069090613081565b60405180910390fd5b8073ffffffffffffffffffffffffffffffffffffffff166106b8611566565b73ffffffffffffffffffffffffffffffffffffffff1614806106e757506106e6816106e1611566565b611352565b5b610726576040517f08c379a000000000000000000000000000000000000000000000000000000000815260040161071d90612f61565b60405180910390fd5b610730838361156e565b505050565b610746610740611566565b82611627565b610785576040517f08c379a000000000000000000000000000000000000000000000000000000000815260040161077c906130a1565b60405180910390fd5b610790838383611705565b505050565b606060006107c96107a584611961565b6040516020016107b59190612d12565b604051602081830303815290604052611b0e565b9050600a80549050816107dc9190613421565b9050600a8181548110610818577f4e487b7100000000000000000000000000000000000000000000000000000000600052603260045260246000fd5b90600052602060002001805461082d90613375565b80601f016020809104026020016040519081016040528092919081815260200182805461085990613375565b80156108a65780601f1061087b576101008083540402835291602001916108a6565b820191906000526020600020905b81548152906001019060200180831161088957829003601f168201915b5050505050915050919050565b6108ce83838360405180602001604052806000815250610e8c565b505050565b606060006109076108e384611961565b6040516020016108f39190612d56565b604051602081830303815290604052611b0e565b9050600d805490508161091a9190613421565b9050600d8181548110610956577f4e487b7100000000000000000000000000000000000000000000000000000000600052603260045260246000fd5b90600052602060002001805461096b90613375565b80601f016020809104026020016040519081016040528092919081815260200182805461099790613375565b80156109e45780601f106109b9576101008083540402835291602001916109e4565b820191906000526020600020905b8154815290600101906020018083116109c757829003601f168201915b5050505050915050919050565b6000806002600084815260200190815260200160002060009054906101000a900473ffffffffffffffffffffffffffffffffffffffff169050600073ffffffffffffffffffffffffffffffffffffffff168173ffffffffffffffffffffffffffffffffffffffff161415610a9a576040517f08c379a0000000000000000000000000000000000000000000000000000000008152600401610a9190612fa1565b60405180910390fd5b80915050919050565b60008073ffffffffffffffffffffffffffffffffffffffff168273ffffffffffffffffffffffffffffffffffffffff161415610b14576040517f08c379a0000000000000000000000000000000000000000000000000000000008152600401610b0b90612f81565b60405180910390fd5b600360008373ffffffffffffffffffffffffffffffffffffffff1673ffffffffffffffffffffffffffffffffffffffff168152602001908152602001600020549050919050565b606060018054610b6a90613375565b80601f0160208091040260200160405190810160405280929190818152602001828054610b9690613375565b8015610be35780601f10610bb857610100808354040283529160200191610be3565b820191906000526020600020905b815481529060010190602001808311610bc657829003601f168201915b5050505050905090565b610bf5611566565b73ffffffffffffffffffffffffffffffffffffffff168273ffffffffffffffffffffffffffffffffffffffff161415610c63576040517f08c379a0000000000000000000000000000000000000000000000000000000008152600401610c5a90612f21565b60405180910390fd5b8060056000610c70611566565b73ffffffffffffffffffffffffffffffffffffffff1673ffffffffffffffffffffffffffffffffffffffff16815260200190815260200160002060008473ffffffffffffffffffffffffffffffffffffffff1673ffffffffffffffffffffffffffffffffffffffff16815260200190815260200160002060006101000a81548160ff0219169083151502179055508173ffffffffffffffffffffffffffffffffffffffff16610d1d611566565b73ffffffffffffffffffffffffffffffffffffffff167f17307eab39ab6107e8899845ad3d59bd9653f200f220920489ca2b5937696c3183604051610d629190612e16565b60405180910390a35050565b60606000610da2610d7e84611961565b604051602001610d8e9190612cab565b604051602081830303815290604052611b0e565b9050600b8054905081610db59190613421565b9050600b8181548110610df1577f4e487b7100000000000000000000000000000000000000000000000000000000600052603260045260246000fd5b906000526020600020018054610e0690613375565b80601f0160208091040260200160405190810160405280929190818152602001828054610e3290613375565b8015610e7f5780601f10610e5457610100808354040283529160200191610e7f565b820191906000526020600020905b815481529060010190602001808311610e6257829003601f168201915b5050505050915050919050565b610e9d610e97611566565b83611627565b610edc576040517f08c379a0000000000000000000000000000000000000000000000000000000008152600401610ed3906130a1565b60405180910390fd5b610ee884848484611b41565b50505050565b60606000610f22610efe84611961565b604051602001610f0e9190612c89565b604051602081830303815290604052611b0e565b9050600c8054905081610f359190613421565b9050600c8181548110610f71577f4e487b7100000000000000000000000000000000000000000000000000000000600052603260045260246000fd5b906000526020600020018054610f8690613375565b80601f0160208091040260200160405190810160405280929190818152602001828054610fb290613375565b8015610fff5780601f10610fd457610100808354040283529160200191610fff565b820191906000526020600020905b815481529060010190602001808311610fe257829003601f168201915b5050505050915050919050565b6060611017826114fa565b611056576040517f08c379a000000000000000000000000000000000000000000000000000000000815260040161104d90613001565b60405180910390fd5b600060066000848152602001908152602001600020805461107690613375565b80601f01602080910402602001604051908101604052809291908181526020018280546110a290613375565b80156110ef5780601f106110c4576101008083540402835291602001916110ef565b820191906000526020600020905b8154815290600101906020018083116110d257829003601f168201915b505050505090506000611100611b9d565b9050600081511415611116578192505050611159565b60008251111561114b578082604051602001611133929190612beb565b60405160208183030381529060405292505050611159565b61115484611bb4565b925050505b919050565b600061116a6007611482565b9050600e60009054906101000a900460ff1660ff1681106111c0576040517f08c379a00000000000000000000000000000000000000000000000000000000081526004016111b7906130c1565b60405180910390fd5b60006111cb82610795565b905060006111d883610d6e565b905060006111e584610eee565b905060008383836040516020016111fe93929190612c0f565b6040516020818303038152906040529050600061121a866108d3565b905060006008826009856040516020016112379493929190612c40565b6040516020818303038152906040529050600061127c8461125784611c5b565b604051602001611268929190612ccd565b604051602081830303815290604052611c5b565b90506000816040516020016112919190612d34565b60405160208183030381529060405290506112ac338a611e19565b6112b68982611e37565b6112d9604051806060016040528060258152602001613c06602591398a33611eab565b6112e36007611f4a565b7f9e9e101732de0887d722bd72c01c5439edc857c9c2c763953d67e66de12441d3338a60018c61131391906131aa565b600e60009054906101000a900460ff1660ff16611330919061328b565b60405161133f93929190612ddf565b60405180910390a1505050505050505050565b6000600560008473ffffffffffffffffffffffffffffffffffffffff1673ffffffffffffffffffffffffffffffffffffffff16815260200190815260200160002060008373ffffffffffffffffffffffffffffffffffffffff1673ffffffffffffffffffffffffffffffffffffffff16815260200190815260200160002060009054906101000a900460ff16905092915050565b61147e82826040516024016113fc929190612e53565b6040516020818303038152906040527f9710a9d0000000000000000000000000000000000000000000000000000000007bffffffffffffffffffffffffffffffffffffffffffffffffffffffff19166020820180517bffffffffffffffffffffffffffffffffffffffffffffffffffffffff8381831617835250505050611f60565b5050565b600081600001549050919050565b60007f01ffc9a7000000000000000000000000000000000000000000000000000000007bffffffffffffffffffffffffffffffffffffffffffffffffffffffff1916827bffffffffffffffffffffffffffffffffffffffffffffffffffffffff1916149050919050565b60008073ffffffffffffffffffffffffffffffffffffffff166002600084815260200190815260200160002060009054906101000a900473ffffffffffffffffffffffffffffffffffffffff1673ffffffffffffffffffffffffffffffffffffffff1614159050919050565b600033905090565b816004600083815260200190815260200160002060006101000a81548173ffffffffffffffffffffffffffffffffffffffff021916908373ffffffffffffffffffffffffffffffffffffffff160217905550808273ffffffffffffffffffffffffffffffffffffffff166115e1836109f1565b73ffffffffffffffffffffffffffffffffffffffff167f8c5be1e5ebec7d5bd14f71427d1e84f3dd0314c0f7b2291e5b200ac8c7c3b92560405160405180910390a45050565b6000611632826114fa565b611671576040517f08c379a000000000000000000000000000000000000000000000000000000000815260040161166890612f41565b60405180910390fd5b600061167c836109f1565b90508073ffffffffffffffffffffffffffffffffffffffff168473ffffffffffffffffffffffffffffffffffffffff1614806116eb57508373ffffffffffffffffffffffffffffffffffffffff166116d384610598565b73ffffffffffffffffffffffffffffffffffffffff16145b806116fc57506116fb8185611352565b5b91505092915050565b8273ffffffffffffffffffffffffffffffffffffffff16611725826109f1565b73ffffffffffffffffffffffffffffffffffffffff161461177b576040517f08c379a000000000000000000000000000000000000000000000000000000000815260040161177290613041565b60405180910390fd5b600073ffffffffffffffffffffffffffffffffffffffff168273ffffffffffffffffffffffffffffffffffffffff1614156117eb576040517f08c379a00000000000000000000000000000000000000000000000000000000081526004016117e290612f01565b60405180910390fd5b6117f6838383611f89565b61180160008261156e565b6001600360008573ffffffffffffffffffffffffffffffffffffffff1673ffffffffffffffffffffffffffffffffffffffff1681526020019081526020016000206000828254611851919061328b565b925050819055506001600360008473ffffffffffffffffffffffffffffffffffffffff1673ffffffffffffffffffffffffffffffffffffffff16815260200190815260200160002060008282546118a891906131aa565b92505081905550816002600083815260200190815260200160002060006101000a81548173ffffffffffffffffffffffffffffffffffffffff021916908373ffffffffffffffffffffffffffffffffffffffff160217905550808273ffffffffffffffffffffffffffffffffffffffff168473ffffffffffffffffffffffffffffffffffffffff167fddf252ad1be2c89b69c2b068fc378daa952ba7f163c4a11628f55a4df523b3ef60405160405180910390a4505050565b606060008214156119a9576040518060400160405280600181526020017f30000000000000000000000000000000000000000000000000000000000000008152509050611b09565b600082905060005b600082146119db5780806119c4906133d8565b915050600a826119d49190613200565b91506119b1565b60008167ffffffffffffffff811115611a1d577f4e487b7100000000000000000000000000000000000000000000000000000000600052604160045260246000fd5b6040519080825280601f01601f191660200182016040528015611a4f5781602001600182028036833780820191505090505b5090505b60008514611b0257600182611a68919061328b565b9150600a85611a779190613421565b6030611a8391906131aa565b60f81b818381518110611abf577f4e487b7100000000000000000000000000000000000000000000000000000000600052603260045260246000fd5b60200101907effffffffffffffffffffffffffffffffffffffffffffffffffffffffffffff1916908160001a905350600a85611afb9190613200565b9450611a53565b8093505050505b919050565b600081604051602001611b219190612bd4565b6040516020818303038152906040528051906020012060001c9050919050565b611b4c848484611705565b611b5884848484611f8e565b611b97576040517f08c379a0000000000000000000000000000000000000000000000000000000008152600401611b8e90612ec1565b60405180910390fd5b50505050565b606060405180602001604052806000815250905090565b6060611bbf826114fa565b611bfe576040517f08c379a0000000000000000000000000000000000000000000000000000000008152600401611bf590613061565b60405180910390fd5b6000611c08611b9d565b90506000815111611c285760405180602001604052806000815250611c53565b80611c3284611961565b604051602001611c43929190612beb565b6040516020818303038152906040525b915050919050565b60606000825190506000811415611c845760405180602001604052806000815250915050611e14565b60006003600283611c9591906131aa565b611c9f9190613200565b6004611cab9190613231565b90506000602082611cbc91906131aa565b67ffffffffffffffff811115611cfb577f4e487b7100000000000000000000000000000000000000000000000000000000600052604160045260246000fd5b6040519080825280601f01601f191660200182016040528015611d2d5781602001600182028036833780820191505090505b5090506000604051806060016040528060408152602001613c2b604091399050600181016020830160005b86811015611dd15760038101905062ffffff818a015116603f8160121c168401518060081b905060ff603f83600c1c1686015116810190508060081b905060ff603f8360061c1686015116810190508060081b905060ff603f831686015116810190508060e01b90508084526004840193505050611d58565b506003860660018114611deb5760028114611dfb57611e06565b613d3d60f01b6002830352611e06565b603d60f81b60018303525b508484525050819450505050505b919050565b611e33828260405180602001604052806000815250612125565b5050565b611e40826114fa565b611e7f576040517f08c379a0000000000000000000000000000000000000000000000000000000008152600401611e7690612fc1565b60405180910390fd5b80600660008481526020019081526020016000209080519060200190611ea6929190612361565b505050565b611f45838383604051602401611ec393929190612e83565b6040516020818303038152906040527fe3849f79000000000000000000000000000000000000000000000000000000007bffffffffffffffffffffffffffffffffffffffffffffffffffffffff19166020820180517bffffffffffffffffffffffffffffffffffffffffffffffffffffffff8381831617835250505050611f60565b505050565b6001816000016000828254019250508190555050565b60008151905060006a636f6e736f6c652e6c6f679050602083016000808483855afa5050505050565b505050565b6000611faf8473ffffffffffffffffffffffffffffffffffffffff16612180565b15612118578373ffffffffffffffffffffffffffffffffffffffff1663150b7a02611fd8611566565b8786866040518563ffffffff1660e01b8152600401611ffa9493929190612d93565b602060405180830381600087803b15801561201457600080fd5b505af192505050801561204557506040513d601f19601f8201168201806040525081019061204291906126a5565b60015b6120c8573d8060008114612075576040519150601f19603f3d011682016040523d82523d6000602084013e61207a565b606091505b506000815114156120c0576040517f08c379a00000000000000000000000000000000000000000000000000000000081526004016120b790612ec1565b60405180910390fd5b805181602001fd5b63150b7a0260e01b7bffffffffffffffffffffffffffffffffffffffffffffffffffffffff1916817bffffffffffffffffffffffffffffffffffffffffffffffffffffffff19161491505061211d565b600190505b949350505050565b61212f8383612193565b61213c6000848484611f8e565b61217b576040517f08c379a000000000000000000000000000000000000000000000000000000000815260040161217290612ec1565b60405180910390fd5b505050565b600080823b905060008111915050919050565b600073ffffffffffffffffffffffffffffffffffffffff168273ffffffffffffffffffffffffffffffffffffffff161415612203576040517f08c379a00000000000000000000000000000000000000000000000000000000081526004016121fa90612fe1565b60405180910390fd5b61220c816114fa565b1561224c576040517f08c379a000000000000000000000000000000000000000000000000000000000815260040161224390612ee1565b60405180910390fd5b61225860008383611f89565b6001600360008473ffffffffffffffffffffffffffffffffffffffff1673ffffffffffffffffffffffffffffffffffffffff16815260200190815260200160002060008282546122a891906131aa565b92505081905550816002600083815260200190815260200160002060006101000a81548173ffffffffffffffffffffffffffffffffffffffff021916908373ffffffffffffffffffffffffffffffffffffffff160217905550808273ffffffffffffffffffffffffffffffffffffffff16600073ffffffffffffffffffffffffffffffffffffffff167fddf252ad1be2c89b69c2b068fc378daa952ba7f163c4a11628f55a4df523b3ef60405160405180910390a45050565b82805461236d90613375565b90600052602060002090601f01602090048101928261238f57600085556123d6565b82601f106123a857805160ff19168380011785556123d6565b828001600101855582156123d6579182015b828111156123d55782518255916020019190600101906123ba565b5b5090506123e391906123e7565b5090565b5b808211156124005760008160009055506001016123e8565b5090565b600061241761241284613121565b6130fc565b90508281526020810184848401111561242f57600080fd5b61243a848285613333565b509392505050565b60008135905061245181613ba9565b92915050565b60008135905061246681613bc0565b92915050565b60008135905061247b81613bd7565b92915050565b60008151905061249081613bd7565b92915050565b600082601f8301126124a757600080fd5b81356124b7848260208601612404565b91505092915050565b6000813590506124cf81613bee565b92915050565b6000602082840312156124e757600080fd5b60006124f584828501612442565b91505092915050565b6000806040838503121561251157600080fd5b600061251f85828601612442565b925050602061253085828601612442565b9150509250929050565b60008060006060848603121561254f57600080fd5b600061255d86828701612442565b935050602061256e86828701612442565b925050604061257f868287016124c0565b9150509250925092565b6000806000806080858703121561259f57600080fd5b60006125ad87828801612442565b94505060206125be87828801612442565b93505060406125cf878288016124c0565b925050606085013567ffffffffffffffff8111156125ec57600080fd5b6125f887828801612496565b91505092959194509250565b6000806040838503121561261757600080fd5b600061262585828601612442565b925050602061263685828601612457565b9150509250929050565b6000806040838503121561265357600080fd5b600061266185828601612442565b9250506020612672858286016124c0565b9150509250929050565b60006020828403121561268e57600080fd5b600061269c8482850161246c565b91505092915050565b6000602082840312156126b757600080fd5b60006126c584828501612481565b91505092915050565b6000602082840312156126e057600080fd5b60006126ee848285016124c0565b91505092915050565b612700816132bf565b82525050565b61270f816132d1565b82525050565b600061272082613167565b61272a818561317d565b935061273a818560208601613342565b6127438161350e565b840191505092915050565b600061275982613172565b612763818561318e565b9350612773818560208601613342565b61277c8161350e565b840191505092915050565b600061279282613172565b61279c818561319f565b93506127ac818560208601613342565b80840191505092915050565b600081546127c581613375565b6127cf818661319f565b945060018216600081146127ea57600181146127fb5761282e565b60ff1983168652818601935061282e565b61280485613152565b60005b8381101561282657815481890152600182019150602081019050612807565b838801955050505b50505092915050565b600061284460328361318e565b915061284f8261351f565b604082019050919050565b6000612867601c8361318e565b91506128728261356e565b602082019050919050565b600061288a600a8361319f565b915061289582613597565b600a82019050919050565b60006128ad60248361318e565b91506128b8826135c0565b604082019050919050565b60006128d060198361318e565b91506128db8261360f565b602082019050919050565b60006128f360638361319f565b91506128fe82613638565b606382019050919050565b6000612916600b8361319f565b9150612921826136d3565b600b82019050919050565b6000612939602c8361318e565b9150612944826136fc565b604082019050919050565b600061295c600d8361319f565b91506129678261374b565b600d82019050919050565b600061297f60388361318e565b915061298a82613774565b604082019050919050565b60006129a2602a8361318e565b91506129ad826137c3565b604082019050919050565b60006129c560298361318e565b91506129d082613812565b604082019050919050565b60006129e8602e8361318e565b91506129f382613861565b604082019050919050565b6000612a0b60028361319f565b9150612a16826138b0565b600282019050919050565b6000612a2e60208361318e565b9150612a39826138d9565b602082019050919050565b6000612a5160318361318e565b9150612a5c82613902565b604082019050919050565b6000612a74602c8361318e565b9150612a7f82613951565b604082019050919050565b6000612a9760298361318e565b9150612aa2826139a0565b604082019050919050565b6000612aba602f8361318e565b9150612ac5826139ef565b604082019050919050565b6000612add600a8361319f565b9150612ae882613a3e565b600a82019050919050565b6000612b0060218361318e565b9150612b0b82613a67565b604082019050919050565b6000612b23600a8361319f565b9150612b2e82613ab6565b600a82019050919050565b6000612b46601d8361319f565b9150612b5182613adf565b601d82019050919050565b6000612b6960318361318e565b9150612b7482613b08565b604082019050919050565b6000612b8c600d8361318e565b9150612b9782613b57565b602082019050919050565b6000612baf60058361319f565b9150612bba82613b80565b600582019050919050565b612bce81613329565b82525050565b6000612be08284612787565b915081905092915050565b6000612bf78285612787565b9150612c038284612787565b91508190509392505050565b6000612c1b8286612787565b9150612c278285612787565b9150612c338284612787565b9150819050949350505050565b6000612c4c82876127b8565b9150612c588286612787565b9150612c6482856127b8565b9150612c708284612787565b9150612c7b8261294f565b915081905095945050505050565b6000612c948261287d565b9150612ca08284612787565b915081905092915050565b6000612cb682612909565b9150612cc28284612787565b915081905092915050565b6000612cd882612ad0565b9150612ce48285612787565b9150612cef826128e6565b9150612cfb8284612787565b9150612d06826129fe565b91508190509392505050565b6000612d1d82612b16565b9150612d298284612787565b915081905092915050565b6000612d3f82612b39565b9150612d4b8284612787565b915081905092915050565b6000612d6182612ba2565b9150612d6d8284612787565b915081905092915050565b6000602082019050612d8d60008301846126f7565b92915050565b6000608082019050612da860008301876126f7565b612db560208301866126f7565b612dc26040830185612bc5565b8181036060830152612dd48184612715565b905095945050505050565b6000606082019050612df460008301866126f7565b612e016020830185612bc5565b612e0e6040830184612bc5565b949350505050565b6000602082019050612e2b6000830184612706565b92915050565b60006020820190508181036000830152612e4b818461274e565b905092915050565b60006040820190508181036000830152612e6d818561274e565b9050612e7c6020830184612bc5565b9392505050565b60006060820190508181036000830152612e9d818661274e565b9050612eac6020830185612bc5565b612eb960408301846126f7565b949350505050565b60006020820190508181036000830152612eda81612837565b9050919050565b60006020820190508181036000830152612efa8161285a565b9050919050565b60006020820190508181036000830152612f1a816128a0565b9050919050565b60006020820190508181036000830152612f3a816128c3565b9050919050565b60006020820190508181036000830152612f5a8161292c565b9050919050565b60006020820190508181036000830152612f7a81612972565b9050919050565b60006020820190508181036000830152612f9a81612995565b9050919050565b60006020820190508181036000830152612fba816129b8565b9050919050565b60006020820190508181036000830152612fda816129db565b9050919050565b60006020820190508181036000830152612ffa81612a21565b9050919050565b6000602082019050818103600083015261301a81612a44565b9050919050565b6000602082019050818103600083015261303a81612a67565b9050919050565b6000602082019050818103600083015261305a81612a8a565b9050919050565b6000602082019050818103600083015261307a81612aad565b9050919050565b6000602082019050818103600083015261309a81612af3565b9050919050565b600060208201905081810360008301526130ba81612b5c565b9050919050565b600060208201905081810360008301526130da81612b7f565b9050919050565b60006020820190506130f66000830184612bc5565b92915050565b6000613106613117565b905061311282826133a7565b919050565b6000604051905090565b600067ffffffffffffffff82111561313c5761313b6134df565b5b6131458261350e565b9050602081019050919050565b60008190508160005260206000209050919050565b600081519050919050565b600081519050919050565b600082825260208201905092915050565b600082825260208201905092915050565b600081905092915050565b60006131b582613329565b91506131c083613329565b9250827fffffffffffffffffffffffffffffffffffffffffffffffffffffffffffffffff038211156131f5576131f4613452565b5b828201905092915050565b600061320b82613329565b915061321683613329565b92508261322657613225613481565b5b828204905092915050565b600061323c82613329565b915061324783613329565b9250817fffffffffffffffffffffffffffffffffffffffffffffffffffffffffffffffff04831182151516156132805761327f613452565b5b828202905092915050565b600061329682613329565b91506132a183613329565b9250828210156132b4576132b3613452565b5b828203905092915050565b60006132ca82613309565b9050919050565b60008115159050919050565b60007fffffffff0000000000000000000000000000000000000000000000000000000082169050919050565b600073ffffffffffffffffffffffffffffffffffffffff82169050919050565b6000819050919050565b82818337600083830152505050565b60005b83811015613360578082015181840152602081019050613345565b8381111561336f576000848401525b50505050565b6000600282049050600182168061338d57607f821691505b602082108114156133a1576133a06134b0565b5b50919050565b6133b08261350e565b810181811067ffffffffffffffff821117156133cf576133ce6134df565b5b80604052505050565b60006133e382613329565b91507fffffffffffffffffffffffffffffffffffffffffffffffffffffffffffffffff82141561341657613415613452565b5b600182019050919050565b600061342c82613329565b915061343783613329565b92508261344757613446613481565b5b828206905092915050565b7f4e487b7100000000000000000000000000000000000000000000000000000000600052601160045260246000fd5b7f4e487b7100000000000000000000000000000000000000000000000000000000600052601260045260246000fd5b7f4e487b7100000000000000000000000000000000000000000000000000000000600052602260045260246000fd5b7f4e487b7100000000000000000000000000000000000000000000000000000000600052604160045260246000fd5b6000601f19601f8301169050919050565b7f4552433732313a207472616e7366657220746f206e6f6e20455243373231526560008201527f63656976657220696d706c656d656e7465720000000000000000000000000000602082015250565b7f4552433732313a20746f6b656e20616c7265616479206d696e74656400000000600082015250565b7f54484952445f574f524400000000000000000000000000000000000000000000600082015250565b7f4552433732313a207472616e7366657220746f20746865207a65726f2061646460008201527f7265737300000000000000000000000000000000000000000000000000000000602082015250565b7f4552433732313a20617070726f766520746f2063616c6c657200000000000000600082015250565b7f222c20226465736372697074696f6e223a20224120686967686c79206163636c60008201527f61696d656420636f6c6c656374696f6e206f6620737175617265732e222c202260208201527f696d616765223a2022646174613a696d6167652f7376672b786d6c3b6261736560408201527f36342c0000000000000000000000000000000000000000000000000000000000606082015250565b7f5345434f4e445f574f5244000000000000000000000000000000000000000000600082015250565b7f4552433732313a206f70657261746f7220717565727920666f72206e6f6e657860008201527f697374656e7420746f6b656e0000000000000000000000000000000000000000602082015250565b7f3c2f746578743e3c2f7376673e00000000000000000000000000000000000000600082015250565b7f4552433732313a20617070726f76652063616c6c6572206973206e6f74206f7760008201527f6e6572206e6f7220617070726f76656420666f7220616c6c0000000000000000602082015250565b7f4552433732313a2062616c616e636520717565727920666f7220746865207a6560008201527f726f206164647265737300000000000000000000000000000000000000000000602082015250565b7f4552433732313a206f776e657220717565727920666f72206e6f6e657869737460008201527f656e7420746f6b656e0000000000000000000000000000000000000000000000602082015250565b7f45524337323155524953746f726167653a2055524920736574206f66206e6f6e60008201527f6578697374656e7420746f6b656e000000000000000000000000000000000000602082015250565b7f227d000000000000000000000000000000000000000000000000000000000000600082015250565b7f4552433732313a206d696e7420746f20746865207a65726f2061646472657373600082015250565b7f45524337323155524953746f726167653a2055524920717565727920666f722060008201527f6e6f6e6578697374656e7420746f6b656e000000000000000000000000000000602082015250565b7f4552433732313a20617070726f76656420717565727920666f72206e6f6e657860008201527f697374656e7420746f6b656e0000000000000000000000000000000000000000602082015250565b7f4552433732313a207472616e73666572206f6620746f6b656e2074686174206960008201527f73206e6f74206f776e0000000000000000000000000000000000000000000000602082015250565b7f4552433732314d657461646174613a2055524920717565727920666f72206e6f60008201527f6e6578697374656e7420746f6b656e0000000000000000000000000000000000602082015250565b7f7b226e616d65223a202200000000000000000000000000000000000000000000600082015250565b7f4552433732313a20617070726f76616c20746f2063757272656e74206f776e6560008201527f7200000000000000000000000000000000000000000000000000000000000000602082015250565b7f46495253545f574f524400000000000000000000000000000000000000000000600082015250565b7f646174613a6170706c69636174696f6e2f6a736f6e3b6261736536342c000000600082015250565b7f4552433732313a207472616e736665722063616c6c6572206973206e6f74206f60008201527f776e6572206e6f7220617070726f766564000000000000000000000000000000602082015250565b7f4e46547320616c6c20676f6e6500000000000000000000000000000000000000600082015250565b7f434f4c4f52000000000000000000000000000000000000000000000000000000600082015250565b613bb2816132bf565b8114613bbd57600080fd5b50565b613bc9816132d1565b8114613bd457600080fd5b50565b613be0816132dd565b8114613beb57600080fd5b50565b613bf781613329565b8114613c0257600080fd5b5056fe416e204e465420772f20494420257320686173206265656e206d696e74656420746f2025734142434445464748494a4b4c4d4e4f505152535455565758595a6162636465666768696a6b6c6d6e6f707172737475767778797a303132333435363738392b2fa26469706673582212204536f24aec853abc31be64e29456e12ebc5e5d2d12bccb916c119aa6e79b6ae464736f6c634300080400333c73766720786d6c6e733d27687474703a2f2f7777772e77332e6f72672f323030302f73766727207072657365727665417370656374526174696f3d27784d696e594d696e206d656574272076696577426f783d273020302033353020333530273e3c7374796c653e2e62617365207b2066696c6c3a2077686974653b20666f6e742d66616d696c793a2073657269663b20666f6e742d73697a653a20323470783b207d3c2f7374796c653e3c726563742077696474683d273130302527206865696768743d2731303025272066696c6c3d27272f3e3c7465787420783d273530252720793d273530252720636c6173733d27626173652720646f6d696e616e742d626173656c696e653d276d6964646c652720746578742d616e63686f723d276d6964646c65273e",
  "linkReferences": {},
  "deployedLinkReferences": {}
}